{
  "_format": "hh-sol-artifact-1",
  "contractName": "MyContractFactory",
  "sourceName": "contracts/Fabric/FabricToken.sol",
  "abi": [
    {
      "inputs": [
        {
          "internalType": "uint256",
          "name": "numberOfContracts",
          "type": "uint256"
        }
      ],
      "name": "createContracts",
      "outputs": [],
      "stateMutability": "payable",
      "type": "function"
    },
    {
      "inputs": [],
      "name": "owner",
      "outputs": [
        {
          "internalType": "address payable",
          "name": "",
          "type": "address"
        }
      ],
      "stateMutability": "view",
      "type": "function"
    },
    {
      "inputs": [
        {
          "internalType": "address",
          "name": "",
          "type": "address"
        },
        {
          "internalType": "uint256",
          "name": "",
          "type": "uint256"
        }
      ],
      "name": "userToContracts",
      "outputs": [
        {
          "internalType": "address",
          "name": "",
          "type": "address"
        }
      ],
      "stateMutability": "view",
      "type": "function"
    },
    {
      "inputs": [
        {
          "internalType": "address",
          "name": "contractAddress",
          "type": "address"
        },
        {
          "internalType": "uint256",
          "name": "amount",
          "type": "uint256"
        }
      ],
      "name": "withdrawFromContract",
      "outputs": [],
      "stateMutability": "nonpayable",
      "type": "function"
    }
  ],
  "bytecode": "0x608060405234801561001057600080fd5b50612912806100206000396000f3fe608060405260043610620000445760003560e01c80633208aae11462000049578063413c935e1462000069578063837381fa14620000ad5780638da5cb5b14620000db575b600080fd5b62000067600480360381019062000061919062000494565b6200010b565b005b3480156200007657600080fd5b506200009560048036038101906200008f91906200052b565b6200026e565b604051620000a4919062000583565b60405180910390f35b348015620000ba57600080fd5b50620000d96004803603810190620000d391906200052b565b620002bd565b005b348015620000e857600080fd5b50620000f362000422565b604051620001029190620005c5565b60405180910390f35b60008166038d7ea4c6800062000122919062000611565b905080341462000169576040517f08c379a00000000000000000000000000000000000000000000000000000000081526004016200016090620006e3565b60405180910390fd5b60005b828110156200026957600033604051620001869062000446565b62000192919062000583565b604051809103906000f080158015620001af573d6000803e3d6000fd5b509050600160003373ffffffffffffffffffffffffffffffffffffffff1673ffffffffffffffffffffffffffffffffffffffff168152602001908152602001600020819080600181540180825580915050600190039060005260206000200160009091909190916101000a81548173ffffffffffffffffffffffffffffffffffffffff021916908373ffffffffffffffffffffffffffffffffffffffff160217905550508080620002609062000705565b9150506200016c565b505050565b600160205281600052604060002081815481106200028b57600080fd5b906000526020600020016000915091509054906101000a900473ffffffffffffffffffffffffffffffffffffffff1681565b60008054906101000a900473ffffffffffffffffffffffffffffffffffffffff1673ffffffffffffffffffffffffffffffffffffffff163373ffffffffffffffffffffffffffffffffffffffff16146200034e576040517f08c379a00000000000000000000000000000000000000000000000000000000081526004016200034590620007c8565b60405180910390fd5b4781111562000394576040517f08c379a00000000000000000000000000000000000000000000000000000000081526004016200038b906200083a565b60405180910390fd5b60008290508073ffffffffffffffffffffffffffffffffffffffff16632e1a7d4d670de0b6b3a764000084620003cb919062000611565b6040518263ffffffff1660e01b8152600401620003e991906200086d565b600060405180830381600087803b1580156200040457600080fd5b505af115801562000419573d6000803e3d6000fd5b50505050505050565b60008054906101000a900473ffffffffffffffffffffffffffffffffffffffff1681565b612052806200088b83390190565b600080fd5b6000819050919050565b6200046e8162000459565b81146200047a57600080fd5b50565b6000813590506200048e8162000463565b92915050565b600060208284031215620004ad57620004ac62000454565b5b6000620004bd848285016200047d565b91505092915050565b600073ffffffffffffffffffffffffffffffffffffffff82169050919050565b6000620004f382620004c6565b9050919050565b6200050581620004e6565b81146200051157600080fd5b50565b6000813590506200052581620004fa565b92915050565b6000806040838503121562000545576200054462000454565b5b6000620005558582860162000514565b925050602062000568858286016200047d565b9150509250929050565b6200057d81620004e6565b82525050565b60006020820190506200059a600083018462000572565b92915050565b6000620005ad82620004c6565b9050919050565b620005bf81620005a0565b82525050565b6000602082019050620005dc6000830184620005b4565b92915050565b7f4e487b7100000000000000000000000000000000000000000000000000000000600052601160045260246000fd5b60006200061e8262000459565b91506200062b8362000459565b92508282026200063b8162000459565b91508282048414831517620006555762000654620005e2565b5b5092915050565b600082825260208201905092915050565b7f596f75206e65656420746f2073656e642074686520636f727265637420616d6f60008201527f756e74206f662065746865720000000000000000000000000000000000000000602082015250565b6000620006cb602c836200065c565b9150620006d8826200066d565b604082019050919050565b60006020820190508181036000830152620006fe81620006bc565b9050919050565b6000620007128262000459565b91507fffffffffffffffffffffffffffffffffffffffffffffffffffffffffffffffff8203620007475762000746620005e2565b5b600182019050919050565b7f4f6e6c7920746865206f776e65722063616e2077697468647261772066756e6460008201527f7300000000000000000000000000000000000000000000000000000000000000602082015250565b6000620007b06021836200065c565b9150620007bd8262000752565b604082019050919050565b60006020820190508181036000830152620007e381620007a1565b9050919050565b7f496e73756666696369656e742062616c616e6365000000000000000000000000600082015250565b6000620008226014836200065c565b91506200082f82620007ea565b602082019050919050565b60006020820190508181036000830152620008558162000813565b9050919050565b620008678162000459565b82525050565b60006020820190506200088460008301846200085c565b9291505056fe60806040523480156200001157600080fd5b506040516200205238038062002052833981810160405281019062000037919062000336565b6040518060400160405280600981526020017f45544845524c4f434b00000000000000000000000000000000000000000000008152506040518060400160405280600381526020017f45484c00000000000000000000000000000000000000000000000000000000008152508160039081620000b49190620005e2565b508060049081620000c69190620005e2565b505050600160058190555080600660006101000a81548173ffffffffffffffffffffffffffffffffffffffff021916908373ffffffffffffffffffffffffffffffffffffffff1602179055506200014e600660009054906101000a900473ffffffffffffffffffffffffffffffffffffffff16670de0b6b3a76400006200015560201b60201c565b50620007e4565b600073ffffffffffffffffffffffffffffffffffffffff168273ffffffffffffffffffffffffffffffffffffffff1603620001c7576040517f08c379a0000000000000000000000000000000000000000000000000000000008152600401620001be906200072a565b60405180910390fd5b620001db60008383620002c260201b60201c565b8060026000828254620001ef91906200077b565b92505081905550806000808473ffffffffffffffffffffffffffffffffffffffff1673ffffffffffffffffffffffffffffffffffffffff168152602001908152602001600020600082825401925050819055508173ffffffffffffffffffffffffffffffffffffffff16600073ffffffffffffffffffffffffffffffffffffffff167fddf252ad1be2c89b69c2b068fc378daa952ba7f163c4a11628f55a4df523b3ef83604051620002a29190620007c7565b60405180910390a3620002be60008383620002c760201b60201c565b5050565b505050565b505050565b600080fd5b600073ffffffffffffffffffffffffffffffffffffffff82169050919050565b6000620002fe82620002d1565b9050919050565b6200031081620002f1565b81146200031c57600080fd5b50565b600081519050620003308162000305565b92915050565b6000602082840312156200034f576200034e620002cc565b5b60006200035f848285016200031f565b91505092915050565b600081519050919050565b7f4e487b7100000000000000000000000000000000000000000000000000000000600052604160045260246000fd5b7f4e487b7100000000000000000000000000000000000000000000000000000000600052602260045260246000fd5b60006002820490506001821680620003ea57607f821691505b6020821081036200040057620003ff620003a2565b5b50919050565b60008190508160005260206000209050919050565b60006020601f8301049050919050565b600082821b905092915050565b6000600883026200046a7fffffffffffffffffffffffffffffffffffffffffffffffffffffffffffffffff826200042b565b6200047686836200042b565b95508019841693508086168417925050509392505050565b6000819050919050565b6000819050919050565b6000620004c3620004bd620004b7846200048e565b62000498565b6200048e565b9050919050565b6000819050919050565b620004df83620004a2565b620004f7620004ee82620004ca565b84845462000438565b825550505050565b600090565b6200050e620004ff565b6200051b818484620004d4565b505050565b5b8181101562000543576200053760008262000504565b60018101905062000521565b5050565b601f82111562000592576200055c8162000406565b62000567846200041b565b8101602085101562000577578190505b6200058f62000586856200041b565b83018262000520565b50505b505050565b600082821c905092915050565b6000620005b76000198460080262000597565b1980831691505092915050565b6000620005d28383620005a4565b9150826002028217905092915050565b620005ed8262000368565b67ffffffffffffffff81111562000609576200060862000373565b5b620006158254620003d1565b6200062282828562000547565b600060209050601f8311600181146200065a576000841562000645578287015190505b620006518582620005c4565b865550620006c1565b601f1984166200066a8662000406565b60005b8281101562000694578489015182556001820191506020850194506020810190506200066d565b86831015620006b45784890151620006b0601f891682620005a4565b8355505b6001600288020188555050505b505050505050565b600082825260208201905092915050565b7f45524332303a206d696e7420746f20746865207a65726f206164647265737300600082015250565b600062000712601f83620006c9565b91506200071f82620006da565b602082019050919050565b60006020820190508181036000830152620007458162000703565b9050919050565b7f4e487b7100000000000000000000000000000000000000000000000000000000600052601160045260246000fd5b600062000788826200048e565b915062000795836200048e565b9250828201905080821115620007b057620007af6200074c565b5b92915050565b620007c1816200048e565b82525050565b6000602082019050620007de6000830184620007b6565b92915050565b61185e80620007f46000396000f3fe608060405234801561001057600080fd5b50600436106100cf5760003560e01c8063395093511161008c57806395d89b411161006657806395d89b4114610228578063a457c2d714610246578063a9059cbb14610276578063dd62ed3e146102a6576100cf565b806339509351146101aa57806370a08231146101da5780638da5cb5b1461020a576100cf565b806306fdde03146100d4578063095ea7b3146100f257806318160ddd1461012257806323b872dd146101405780632e1a7d4d14610170578063313ce5671461018c575b600080fd5b6100dc6102d6565b6040516100e99190610f0e565b60405180910390f35b61010c60048036038101906101079190610fc9565b610368565b6040516101199190611024565b60405180910390f35b61012a61038b565b604051610137919061104e565b60405180910390f35b61015a60048036038101906101559190611069565b610395565b6040516101679190611024565b60405180910390f35b61018a600480360381019061018591906110bc565b6103c4565b005b610194610513565b6040516101a19190611105565b60405180910390f35b6101c460048036038101906101bf9190610fc9565b61051c565b6040516101d19190611024565b60405180910390f35b6101f460048036038101906101ef9190611120565b610553565b604051610201919061104e565b60405180910390f35b61021261059b565b60405161021f919061115c565b60405180910390f35b6102306105c1565b60405161023d9190610f0e565b60405180910390f35b610260600480360381019061025b9190610fc9565b610653565b60405161026d9190611024565b60405180910390f35b610290600480360381019061028b9190610fc9565b6106ca565b60405161029d9190611024565b60405180910390f35b6102c060048036038101906102bb9190611177565b61076b565b6040516102cd919061104e565b60405180910390f35b6060600380546102e5906111e6565b80601f0160208091040260200160405190810160405280929190818152602001828054610311906111e6565b801561035e5780601f106103335761010080835404028352916020019161035e565b820191906000526020600020905b81548152906001019060200180831161034157829003601f168201915b5050505050905090565b6000806103736107f2565b90506103808185856107fa565b600191505092915050565b6000600254905090565b6000806103a06107f2565b90506103ad8582856109c3565b6103b8858585610a4f565b60019150509392505050565b6103cc610cc5565b600660009054906101000a900473ffffffffffffffffffffffffffffffffffffffff1673ffffffffffffffffffffffffffffffffffffffff163373ffffffffffffffffffffffffffffffffffffffff161461045c576040517f08c379a000000000000000000000000000000000000000000000000000000000815260040161045390611289565b60405180910390fd5b4781111561049f576040517f08c379a0000000000000000000000000000000000000000000000000000000008152600401610496906112f5565b60405180910390fd5b600660009054906101000a900473ffffffffffffffffffffffffffffffffffffffff1673ffffffffffffffffffffffffffffffffffffffff166108fc829081150290604051600060405180830381858888f19350505050158015610507573d6000803e3d6000fd5b50610510610d14565b50565b60006012905090565b6000806105276107f2565b9050610548818585610539858961076b565b6105439190611344565b6107fa565b600191505092915050565b60008060008373ffffffffffffffffffffffffffffffffffffffff1673ffffffffffffffffffffffffffffffffffffffff168152602001908152602001600020549050919050565b600660009054906101000a900473ffffffffffffffffffffffffffffffffffffffff1681565b6060600480546105d0906111e6565b80601f01602080910402602001604051908101604052809291908181526020018280546105fc906111e6565b80156106495780601f1061061e57610100808354040283529160200191610649565b820191906000526020600020905b81548152906001019060200180831161062c57829003601f168201915b5050505050905090565b60008061065e6107f2565b9050600061066c828661076b565b9050838110156106b1576040517f08c379a00000000000000000000000000000000000000000000000000000000081526004016106a8906113ea565b60405180910390fd5b6106be82868684036107fa565b60019250505092915050565b60006106d7338484610a4f565b600660009054906101000a900473ffffffffffffffffffffffffffffffffffffffff1673ffffffffffffffffffffffffffffffffffffffff168373ffffffffffffffffffffffffffffffffffffffff160361076157610760600660009054906101000a900473ffffffffffffffffffffffffffffffffffffffff16670de0b6b3a7640000610d1e565b5b6001905092915050565b6000600160008473ffffffffffffffffffffffffffffffffffffffff1673ffffffffffffffffffffffffffffffffffffffff16815260200190815260200160002060008373ffffffffffffffffffffffffffffffffffffffff1673ffffffffffffffffffffffffffffffffffffffff16815260200190815260200160002054905092915050565b600033905090565b600073ffffffffffffffffffffffffffffffffffffffff168373ffffffffffffffffffffffffffffffffffffffff1603610869576040517f08c379a00000000000000000000000000000000000000000000000000000000081526004016108609061147c565b60405180910390fd5b600073ffffffffffffffffffffffffffffffffffffffff168273ffffffffffffffffffffffffffffffffffffffff16036108d8576040517f08c379a00000000000000000000000000000000000000000000000000000000081526004016108cf9061150e565b60405180910390fd5b80600160008573ffffffffffffffffffffffffffffffffffffffff1673ffffffffffffffffffffffffffffffffffffffff16815260200190815260200160002060008473ffffffffffffffffffffffffffffffffffffffff1673ffffffffffffffffffffffffffffffffffffffff168152602001908152602001600020819055508173ffffffffffffffffffffffffffffffffffffffff168373ffffffffffffffffffffffffffffffffffffffff167f8c5be1e5ebec7d5bd14f71427d1e84f3dd0314c0f7b2291e5b200ac8c7c3b925836040516109b6919061104e565b60405180910390a3505050565b60006109cf848461076b565b90507fffffffffffffffffffffffffffffffffffffffffffffffffffffffffffffffff8114610a495781811015610a3b576040517f08c379a0000000000000000000000000000000000000000000000000000000008152600401610a329061157a565b60405180910390fd5b610a4884848484036107fa565b5b50505050565b600073ffffffffffffffffffffffffffffffffffffffff168373ffffffffffffffffffffffffffffffffffffffff1603610abe576040517f08c379a0000000000000000000000000000000000000000000000000000000008152600401610ab59061160c565b60405180910390fd5b600073ffffffffffffffffffffffffffffffffffffffff168273ffffffffffffffffffffffffffffffffffffffff1603610b2d576040517f08c379a0000000000000000000000000000000000000000000000000000000008152600401610b249061169e565b60405180910390fd5b610b38838383610e74565b60008060008573ffffffffffffffffffffffffffffffffffffffff1673ffffffffffffffffffffffffffffffffffffffff16815260200190815260200160002054905081811015610bbe576040517f08c379a0000000000000000000000000000000000000000000000000000000008152600401610bb590611730565b60405180910390fd5b8181036000808673ffffffffffffffffffffffffffffffffffffffff1673ffffffffffffffffffffffffffffffffffffffff16815260200190815260200160002081905550816000808573ffffffffffffffffffffffffffffffffffffffff1673ffffffffffffffffffffffffffffffffffffffff168152602001908152602001600020600082825401925050819055508273ffffffffffffffffffffffffffffffffffffffff168473ffffffffffffffffffffffffffffffffffffffff167fddf252ad1be2c89b69c2b068fc378daa952ba7f163c4a11628f55a4df523b3ef84604051610cac919061104e565b60405180910390a3610cbf848484610e79565b50505050565b600260055403610d0a576040517f08c379a0000000000000000000000000000000000000000000000000000000008152600401610d019061179c565b60405180910390fd5b6002600581905550565b6001600581905550565b600073ffffffffffffffffffffffffffffffffffffffff168273ffffffffffffffffffffffffffffffffffffffff1603610d8d576040517f08c379a0000000000000000000000000000000000000000000000000000000008152600401610d8490611808565b60405180910390fd5b610d9960008383610e74565b8060026000828254610dab9190611344565b92505081905550806000808473ffffffffffffffffffffffffffffffffffffffff1673ffffffffffffffffffffffffffffffffffffffff168152602001908152602001600020600082825401925050819055508173ffffffffffffffffffffffffffffffffffffffff16600073ffffffffffffffffffffffffffffffffffffffff167fddf252ad1be2c89b69c2b068fc378daa952ba7f163c4a11628f55a4df523b3ef83604051610e5c919061104e565b60405180910390a3610e7060008383610e79565b5050565b505050565b505050565b600081519050919050565b600082825260208201905092915050565b60005b83811015610eb8578082015181840152602081019050610e9d565b60008484015250505050565b6000601f19601f8301169050919050565b6000610ee082610e7e565b610eea8185610e89565b9350610efa818560208601610e9a565b610f0381610ec4565b840191505092915050565b60006020820190508181036000830152610f288184610ed5565b905092915050565b600080fd5b600073ffffffffffffffffffffffffffffffffffffffff82169050919050565b6000610f6082610f35565b9050919050565b610f7081610f55565b8114610f7b57600080fd5b50565b600081359050610f8d81610f67565b92915050565b6000819050919050565b610fa681610f93565b8114610fb157600080fd5b50565b600081359050610fc381610f9d565b92915050565b60008060408385031215610fe057610fdf610f30565b5b6000610fee85828601610f7e565b9250506020610fff85828601610fb4565b9150509250929050565b60008115159050919050565b61101e81611009565b82525050565b60006020820190506110396000830184611015565b92915050565b61104881610f93565b82525050565b6000602082019050611063600083018461103f565b92915050565b60008060006060848603121561108257611081610f30565b5b600061109086828701610f7e565b93505060206110a186828701610f7e565b92505060406110b286828701610fb4565b9150509250925092565b6000602082840312156110d2576110d1610f30565b5b60006110e084828501610fb4565b91505092915050565b600060ff82169050919050565b6110ff816110e9565b82525050565b600060208201905061111a60008301846110f6565b92915050565b60006020828403121561113657611135610f30565b5b600061114484828501610f7e565b91505092915050565b61115681610f55565b82525050565b6000602082019050611171600083018461114d565b92915050565b6000806040838503121561118e5761118d610f30565b5b600061119c85828601610f7e565b92505060206111ad85828601610f7e565b9150509250929050565b7f4e487b7100000000000000000000000000000000000000000000000000000000600052602260045260246000fd5b600060028204905060018216806111fe57607f821691505b602082108103611211576112106111b7565b5b50919050565b7f4f6e6c7920746865206f776e65722063616e2077697468647261772066756e6460008201527f7300000000000000000000000000000000000000000000000000000000000000602082015250565b6000611273602183610e89565b915061127e82611217565b604082019050919050565b600060208201905081810360008301526112a281611266565b9050919050565b7f496e73756666696369656e742062616c616e6365000000000000000000000000600082015250565b60006112df601483610e89565b91506112ea826112a9565b602082019050919050565b6000602082019050818103600083015261130e816112d2565b9050919050565b7f4e487b7100000000000000000000000000000000000000000000000000000000600052601160045260246000fd5b600061134f82610f93565b915061135a83610f93565b925082820190508082111561137257611371611315565b5b92915050565b7f45524332303a2064656372656173656420616c6c6f77616e63652062656c6f7760008201527f207a65726f000000000000000000000000000000000000000000000000000000602082015250565b60006113d4602583610e89565b91506113df82611378565b604082019050919050565b60006020820190508181036000830152611403816113c7565b9050919050565b7f45524332303a20617070726f76652066726f6d20746865207a65726f2061646460008201527f7265737300000000000000000000000000000000000000000000000000000000602082015250565b6000611466602483610e89565b91506114718261140a565b604082019050919050565b6000602082019050818103600083015261149581611459565b9050919050565b7f45524332303a20617070726f766520746f20746865207a65726f20616464726560008201527f7373000000000000000000000000000000000000000000000000000000000000602082015250565b60006114f8602283610e89565b91506115038261149c565b604082019050919050565b60006020820190508181036000830152611527816114eb565b9050919050565b7f45524332303a20696e73756666696369656e7420616c6c6f77616e6365000000600082015250565b6000611564601d83610e89565b915061156f8261152e565b602082019050919050565b6000602082019050818103600083015261159381611557565b9050919050565b7f45524332303a207472616e736665722066726f6d20746865207a65726f20616460008201527f6472657373000000000000000000000000000000000000000000000000000000602082015250565b60006115f6602583610e89565b91506116018261159a565b604082019050919050565b60006020820190508181036000830152611625816115e9565b9050919050565b7f45524332303a207472616e7366657220746f20746865207a65726f206164647260008201527f6573730000000000000000000000000000000000000000000000000000000000602082015250565b6000611688602383610e89565b91506116938261162c565b604082019050919050565b600060208201905081810360008301526116b78161167b565b9050919050565b7f45524332303a207472616e7366657220616d6f756e742065786365656473206260008201527f616c616e63650000000000000000000000000000000000000000000000000000602082015250565b600061171a602683610e89565b9150611725826116be565b604082019050919050565b600060208201905081810360008301526117498161170d565b9050919050565b7f5265656e7472616e637947756172643a207265656e7472616e742063616c6c00600082015250565b6000611786601f83610e89565b915061179182611750565b602082019050919050565b600060208201905081810360008301526117b581611779565b9050919050565b7f45524332303a206d696e7420746f20746865207a65726f206164647265737300600082015250565b60006117f2601f83610e89565b91506117fd826117bc565b602082019050919050565b60006020820190508181036000830152611821816117e5565b905091905056fea2646970667358221220ada5ac55f3d6480416f889e4707a7c2c6238e3ed9023be6f921803a07103db2464736f6c63430008130033a26469706673582212203a7d5962d505793b26c310d88446c7b09bcf56d8bb9d491f7c997442f82c5fc264736f6c63430008130033",
  "linkReferences": {},
  "deployedLinkReferences": {}
}